{
  "contractName": "ExchangeOrdersHolderV1",
  "abi": [
    {
      "constant": false,
      "inputs": [
        {
          "components": [
            {
              "components": [
                {
                  "internalType": "address",
                  "name": "owner",
                  "type": "address"
                },
                {
                  "internalType": "uint256",
                  "name": "salt",
                  "type": "uint256"
                },
                {
                  "components": [
                    {
                      "internalType": "address",
                      "name": "token",
                      "type": "address"
                    },
                    {
                      "internalType": "uint256",
                      "name": "tokenId",
                      "type": "uint256"
                    },
                    {
                      "internalType": "enum ExchangeDomainV1.AssetType",
                      "name": "assetType",
                      "type": "uint8"
                    }
                  ],
                  "internalType": "struct ExchangeDomainV1.Asset",
                  "name": "sellAsset",
                  "type": "tuple"
                },
                {
                  "components": [
                    {
                      "internalType": "address",
                      "name": "token",
                      "type": "address"
                    },
                    {
                      "internalType": "uint256",
                      "name": "tokenId",
                      "type": "uint256"
                    },
                    {
                      "internalType": "enum ExchangeDomainV1.AssetType",
                      "name": "assetType",
                      "type": "uint8"
                    }
                  ],
                  "internalType": "struct ExchangeDomainV1.Asset",
                  "name": "buyAsset",
                  "type": "tuple"
                }
              ],
              "internalType": "struct ExchangeDomainV1.OrderKey",
              "name": "key",
              "type": "tuple"
            },
            {
              "internalType": "uint256",
              "name": "selling",
              "type": "uint256"
            },
            {
              "internalType": "uint256",
              "name": "buying",
              "type": "uint256"
            },
            {
              "internalType": "uint256",
              "name": "sellerFee",
              "type": "uint256"
            }
          ],
          "internalType": "struct ExchangeDomainV1.Order",
          "name": "order",
          "type": "tuple"
        }
      ],
      "name": "add",
      "outputs": [],
      "payable": false,
      "stateMutability": "nonpayable",
      "type": "function"
    },
    {
      "constant": true,
      "inputs": [
        {
          "components": [
            {
              "components": [
                {
                  "internalType": "address",
                  "name": "owner",
                  "type": "address"
                },
                {
                  "internalType": "uint256",
                  "name": "salt",
                  "type": "uint256"
                },
                {
                  "components": [
                    {
                      "internalType": "address",
                      "name": "token",
                      "type": "address"
                    },
                    {
                      "internalType": "uint256",
                      "name": "tokenId",
                      "type": "uint256"
                    },
                    {
                      "internalType": "enum ExchangeDomainV1.AssetType",
                      "name": "assetType",
                      "type": "uint8"
                    }
                  ],
                  "internalType": "struct ExchangeDomainV1.Asset",
                  "name": "sellAsset",
                  "type": "tuple"
                },
                {
                  "components": [
                    {
                      "internalType": "address",
                      "name": "token",
                      "type": "address"
                    },
                    {
                      "internalType": "uint256",
                      "name": "tokenId",
                      "type": "uint256"
                    },
                    {
                      "internalType": "enum ExchangeDomainV1.AssetType",
                      "name": "assetType",
                      "type": "uint8"
                    }
                  ],
                  "internalType": "struct ExchangeDomainV1.Asset",
                  "name": "buyAsset",
                  "type": "tuple"
                }
              ],
              "internalType": "struct ExchangeDomainV1.OrderKey",
              "name": "key",
              "type": "tuple"
            },
            {
              "internalType": "uint256",
              "name": "selling",
              "type": "uint256"
            },
            {
              "internalType": "uint256",
              "name": "buying",
              "type": "uint256"
            },
            {
              "internalType": "uint256",
              "name": "sellerFee",
              "type": "uint256"
            }
          ],
          "internalType": "struct ExchangeDomainV1.Order",
          "name": "order",
          "type": "tuple"
        }
      ],
      "name": "exists",
      "outputs": [
        {
          "internalType": "bool",
          "name": "",
          "type": "bool"
        }
      ],
      "payable": false,
      "stateMutability": "view",
      "type": "function"
    }
  ],
  "bytecode": "0x608060405234801561001057600080fd5b5061071e806100206000396000f3fe608060405234801561001057600080fd5b50600436106100365760003560e01c80632aee7a311461003b5780639f6cc6d61461006b575b600080fd5b61005560048036036100509190810190610494565b610087565b60405161006291906105dc565b60405180910390f35b61008560048036036100809190810190610494565b610127565b005b6000806100a38380360361009e91908101906104be565b610228565b90506100ad6102a2565b60008083815260200190815260200160002060405180606001604052908160008201548152602001600182015481526020016002820154815250509050836101200135816020015114801561010a57508361010001358160000151145b801561011e57508361014001358160400151145b92505050919050565b80600001600001602061013d919081019061046b565b73ffffffffffffffffffffffffffffffffffffffff163373ffffffffffffffffffffffffffffffffffffffff16146101aa576040517f08c379a00000000000000000000000000000000000000000000000000000000081526004016101a1906105f7565b60405180910390fd5b60006101c5828036036101c091908101906104be565b610228565b90506040518060600160405280836101000135815260200183610120013581526020018361014001358152506000808381526020019081526020016000206000820151816000015560208201518160010155604082015181600201559050505050565b6000816000015160400151600001518260000151604001516020015183600001516000015184600001516060015160000151856000015160600151602001518660000151602001516040516020016102859695949392919061057b565b604051602081830303815290604052805190602001209050919050565b60405180606001604052806000815260200160008152602001600081525090565b6000813590506102d28161069d565b92915050565b6000813590506102e7816106b4565b92915050565b6000606082840312156102ff57600080fd5b6103096060610617565b90506000610319848285016102c3565b600083015250602061032d84828501610456565b6020830152506040610341848285016102d8565b60408301525092915050565b6000610100828403121561036057600080fd5b61036a6080610617565b9050600061037a848285016102c3565b600083015250602061038e84828501610456565b60208301525060406103a2848285016102ed565b60408301525060a06103b6848285016102ed565b60608301525092915050565b600061016082840312156103d557600080fd5b81905092915050565b600061016082840312156103f157600080fd5b6103fb6080610617565b9050600061040b8482850161034d565b60008301525061010061042084828501610456565b60208301525061012061043584828501610456565b60408301525061014061044a84828501610456565b60608301525092915050565b600081359050610465816106c4565b92915050565b60006020828403121561047d57600080fd5b600061048b848285016102c3565b91505092915050565b600061016082840312156104a757600080fd5b60006104b5848285016103c2565b91505092915050565b600061016082840312156104d157600080fd5b60006104df848285016103de565b91505092915050565b6104f181610655565b82525050565b61050081610667565b82525050565b6000610513602283610644565b91507f6f7264657220636f756c64206265206164646564206279206f776e6572206f6e60008301527f6c790000000000000000000000000000000000000000000000000000000000006020830152604082019050919050565b61057581610693565b82525050565b600060c08201905061059060008301896104e8565b61059d602083018861056c565b6105aa60408301876104e8565b6105b760608301866104e8565b6105c4608083018561056c565b6105d160a083018461056c565b979650505050505050565b60006020820190506105f160008301846104f7565b92915050565b6000602082019050818103600083015261061081610506565b9050919050565b6000604051905081810181811067ffffffffffffffff8211171561063a57600080fd5b8060405250919050565b600082825260208201905092915050565b600061066082610673565b9050919050565b60008115159050919050565b600073ffffffffffffffffffffffffffffffffffffffff82169050919050565b6000819050919050565b6106a681610655565b81146106b157600080fd5b50565b600581106106c157600080fd5b50565b6106cd81610693565b81146106d857600080fd5b5056fea365627a7a72315820e86213b163271df400859baea91753a41f18e26fb0110caba0c9513a47355d676c6578706572696d656e74616cf564736f6c63430005110040",
  "source": "pragma solidity ^0.5.0;\r\npragma experimental ABIEncoderV2;\r\n\r\nimport './ExchangeDomainV1.sol';\r\n\r\ncontract ExchangeOrdersHolderV1 {\r\n\r\n    mapping(bytes32 => OrderParams) internal orders;\r\n\r\n    struct OrderParams {\r\n        /* how much has owner (in wei, or UINT256_MAX if ERC-721) */\r\n        uint selling;\r\n        /* how much wants owner (in wei, or UINT256_MAX if ERC-721) */\r\n        uint buying;\r\n\r\n        /* fee for selling */\r\n        uint sellerFee;\r\n    }\r\n\r\n    function add(ExchangeDomainV1.Order calldata order) external {\r\n        require(msg.sender == order.key.owner, \"order could be added by owner only\");\r\n        bytes32 key = prepareKey(order);\r\n        orders[key] = OrderParams(order.selling, order.buying, order.sellerFee);\r\n    }\r\n\r\n    function exists(ExchangeDomainV1.Order calldata order) external view returns (bool) {\r\n        bytes32 key = prepareKey(order);\r\n        OrderParams memory params = orders[key];\r\n        return params.buying == order.buying && params.selling == order.selling && params.sellerFee == order.sellerFee;\r\n    }\r\n\r\n    function prepareKey(ExchangeDomainV1.Order memory order) internal pure returns (bytes32) {\r\n        return keccak256(abi.encode(\r\n                order.key.sellAsset.token,\r\n                order.key.sellAsset.tokenId,\r\n                order.key.owner,\r\n                order.key.buyAsset.token,\r\n                order.key.buyAsset.tokenId,\r\n                order.key.salt\r\n            ));\r\n    }\r\n}",
  "sourcePath": "A:/project_2021/0422-NFT-Marketplace/work/BrandonMarketing-Contract/contracts/ExchangeOrdersHolderV1.sol",
  "compiler": {
    "name": "solc",
    "version": "0.5.17+commit.d19bba13.Emscripten.clang"
  },
  "schemaVersion": "3.3.4",
  "updatedAt": "2021-05-11T15:36:38.171Z",
  "networkType": "ethereum",
  "devdoc": {
    "methods": {}
  },
  "userdoc": {
    "methods": {}
  }
}