{
  "contractName": "ExchangeV1",
  "abi": [
    {
      "inputs": [
        {
          "internalType": "contract TransferProxy",
          "name": "_transferProxy",
          "type": "address"
        },
        {
          "internalType": "contract TransferProxyForDeprecated",
          "name": "_transferProxyForDeprecated",
          "type": "address"
        },
        {
          "internalType": "contract ERC20TransferProxy",
          "name": "_erc20TransferProxy",
          "type": "address"
        },
        {
          "internalType": "contract ExchangeStateV1",
          "name": "_state",
          "type": "address"
        },
        {
          "internalType": "contract ExchangeOrdersHolderV1",
          "name": "_ordersHolder",
          "type": "address"
        },
        {
          "internalType": "address payable",
          "name": "_beneficiary",
          "type": "address"
        },
        {
          "internalType": "address",
          "name": "_buyerFeeSigner",
          "type": "address"
        }
      ],
      "payable": false,
      "stateMutability": "nonpayable",
      "type": "constructor"
    },
    {
      "anonymous": false,
      "inputs": [
        {
          "indexed": true,
          "internalType": "address",
          "name": "sellToken",
          "type": "address"
        },
        {
          "indexed": true,
          "internalType": "uint256",
          "name": "sellTokenId",
          "type": "uint256"
        },
        {
          "indexed": false,
          "internalType": "uint256",
          "name": "sellValue",
          "type": "uint256"
        },
        {
          "indexed": false,
          "internalType": "address",
          "name": "owner",
          "type": "address"
        },
        {
          "indexed": false,
          "internalType": "address",
          "name": "buyToken",
          "type": "address"
        },
        {
          "indexed": false,
          "internalType": "uint256",
          "name": "buyTokenId",
          "type": "uint256"
        },
        {
          "indexed": false,
          "internalType": "uint256",
          "name": "buyValue",
          "type": "uint256"
        },
        {
          "indexed": false,
          "internalType": "address",
          "name": "buyer",
          "type": "address"
        },
        {
          "indexed": false,
          "internalType": "uint256",
          "name": "amount",
          "type": "uint256"
        },
        {
          "indexed": false,
          "internalType": "uint256",
          "name": "salt",
          "type": "uint256"
        }
      ],
      "name": "Buy",
      "type": "event"
    },
    {
      "anonymous": false,
      "inputs": [
        {
          "indexed": true,
          "internalType": "address",
          "name": "sellToken",
          "type": "address"
        },
        {
          "indexed": true,
          "internalType": "uint256",
          "name": "sellTokenId",
          "type": "uint256"
        },
        {
          "indexed": false,
          "internalType": "address",
          "name": "owner",
          "type": "address"
        },
        {
          "indexed": false,
          "internalType": "address",
          "name": "buyToken",
          "type": "address"
        },
        {
          "indexed": false,
          "internalType": "uint256",
          "name": "buyTokenId",
          "type": "uint256"
        },
        {
          "indexed": false,
          "internalType": "uint256",
          "name": "salt",
          "type": "uint256"
        }
      ],
      "name": "Cancel",
      "type": "event"
    },
    {
      "anonymous": false,
      "inputs": [
        {
          "indexed": true,
          "internalType": "address",
          "name": "previousOwner",
          "type": "address"
        },
        {
          "indexed": true,
          "internalType": "address",
          "name": "newOwner",
          "type": "address"
        }
      ],
      "name": "OwnershipTransferred",
      "type": "event"
    },
    {
      "constant": true,
      "inputs": [],
      "name": "beneficiary",
      "outputs": [
        {
          "internalType": "address payable",
          "name": "",
          "type": "address"
        }
      ],
      "payable": false,
      "stateMutability": "view",
      "type": "function"
    },
    {
      "constant": true,
      "inputs": [],
      "name": "buyerFeeSigner",
      "outputs": [
        {
          "internalType": "address",
          "name": "",
          "type": "address"
        }
      ],
      "payable": false,
      "stateMutability": "view",
      "type": "function"
    },
    {
      "constant": true,
      "inputs": [],
      "name": "erc20TransferProxy",
      "outputs": [
        {
          "internalType": "contract ERC20TransferProxy",
          "name": "",
          "type": "address"
        }
      ],
      "payable": false,
      "stateMutability": "view",
      "type": "function"
    },
    {
      "constant": true,
      "inputs": [],
      "name": "isOwner",
      "outputs": [
        {
          "internalType": "bool",
          "name": "",
          "type": "bool"
        }
      ],
      "payable": false,
      "stateMutability": "view",
      "type": "function"
    },
    {
      "constant": true,
      "inputs": [],
      "name": "ordersHolder",
      "outputs": [
        {
          "internalType": "contract ExchangeOrdersHolderV1",
          "name": "",
          "type": "address"
        }
      ],
      "payable": false,
      "stateMutability": "view",
      "type": "function"
    },
    {
      "constant": true,
      "inputs": [],
      "name": "owner",
      "outputs": [
        {
          "internalType": "address",
          "name": "",
          "type": "address"
        }
      ],
      "payable": false,
      "stateMutability": "view",
      "type": "function"
    },
    {
      "constant": false,
      "inputs": [],
      "name": "renounceOwnership",
      "outputs": [],
      "payable": false,
      "stateMutability": "nonpayable",
      "type": "function"
    },
    {
      "constant": true,
      "inputs": [],
      "name": "state",
      "outputs": [
        {
          "internalType": "contract ExchangeStateV1",
          "name": "",
          "type": "address"
        }
      ],
      "payable": false,
      "stateMutability": "view",
      "type": "function"
    },
    {
      "constant": false,
      "inputs": [
        {
          "internalType": "address",
          "name": "newOwner",
          "type": "address"
        }
      ],
      "name": "transferOwnership",
      "outputs": [],
      "payable": false,
      "stateMutability": "nonpayable",
      "type": "function"
    },
    {
      "constant": true,
      "inputs": [],
      "name": "transferProxy",
      "outputs": [
        {
          "internalType": "contract TransferProxy",
          "name": "",
          "type": "address"
        }
      ],
      "payable": false,
      "stateMutability": "view",
      "type": "function"
    },
    {
      "constant": true,
      "inputs": [],
      "name": "transferProxyForDeprecated",
      "outputs": [
        {
          "internalType": "contract TransferProxyForDeprecated",
          "name": "",
          "type": "address"
        }
      ],
      "payable": false,
      "stateMutability": "view",
      "type": "function"
    },
    {
      "constant": false,
      "inputs": [
        {
          "internalType": "address payable",
          "name": "newBeneficiary",
          "type": "address"
        }
      ],
      "name": "setBeneficiary",
      "outputs": [],
      "payable": false,
      "stateMutability": "nonpayable",
      "type": "function"
    },
    {
      "constant": false,
      "inputs": [
        {
          "internalType": "address",
          "name": "newBuyerFeeSigner",
          "type": "address"
        }
      ],
      "name": "setBuyerFeeSigner",
      "outputs": [],
      "payable": false,
      "stateMutability": "nonpayable",
      "type": "function"
    },
    {
      "constant": false,
      "inputs": [
        {
          "components": [
            {
              "components": [
                {
                  "internalType": "address",
                  "name": "owner",
                  "type": "address"
                },
                {
                  "internalType": "uint256",
                  "name": "salt",
                  "type": "uint256"
                },
                {
                  "components": [
                    {
                      "internalType": "address",
                      "name": "token",
                      "type": "address"
                    },
                    {
                      "internalType": "uint256",
                      "name": "tokenId",
                      "type": "uint256"
                    },
                    {
                      "internalType": "enum ExchangeDomainV1.AssetType",
                      "name": "assetType",
                      "type": "uint8"
                    }
                  ],
                  "internalType": "struct ExchangeDomainV1.Asset",
                  "name": "sellAsset",
                  "type": "tuple"
                },
                {
                  "components": [
                    {
                      "internalType": "address",
                      "name": "token",
                      "type": "address"
                    },
                    {
                      "internalType": "uint256",
                      "name": "tokenId",
                      "type": "uint256"
                    },
                    {
                      "internalType": "enum ExchangeDomainV1.AssetType",
                      "name": "assetType",
                      "type": "uint8"
                    }
                  ],
                  "internalType": "struct ExchangeDomainV1.Asset",
                  "name": "buyAsset",
                  "type": "tuple"
                }
              ],
              "internalType": "struct ExchangeDomainV1.OrderKey",
              "name": "key",
              "type": "tuple"
            },
            {
              "internalType": "uint256",
              "name": "selling",
              "type": "uint256"
            },
            {
              "internalType": "uint256",
              "name": "buying",
              "type": "uint256"
            },
            {
              "internalType": "uint256",
              "name": "sellerFee",
              "type": "uint256"
            }
          ],
          "internalType": "struct ExchangeDomainV1.Order",
          "name": "order",
          "type": "tuple"
        },
        {
          "components": [
            {
              "internalType": "uint8",
              "name": "v",
              "type": "uint8"
            },
            {
              "internalType": "bytes32",
              "name": "r",
              "type": "bytes32"
            },
            {
              "internalType": "bytes32",
              "name": "s",
              "type": "bytes32"
            }
          ],
          "internalType": "struct ExchangeDomainV1.Sig",
          "name": "sig",
          "type": "tuple"
        },
        {
          "internalType": "uint256",
          "name": "buyerFee",
          "type": "uint256"
        },
        {
          "components": [
            {
              "internalType": "uint8",
              "name": "v",
              "type": "uint8"
            },
            {
              "internalType": "bytes32",
              "name": "r",
              "type": "bytes32"
            },
            {
              "internalType": "bytes32",
              "name": "s",
              "type": "bytes32"
            }
          ],
          "internalType": "struct ExchangeDomainV1.Sig",
          "name": "buyerFeeSig",
          "type": "tuple"
        },
        {
          "internalType": "uint256",
          "name": "amount",
          "type": "uint256"
        },
        {
          "internalType": "address",
          "name": "buyer",
          "type": "address"
        }
      ],
      "name": "exchange",
      "outputs": [],
      "payable": true,
      "stateMutability": "payable",
      "type": "function"
    },
    {
      "constant": false,
      "inputs": [
        {
          "components": [
            {
              "internalType": "address",
              "name": "owner",
              "type": "address"
            },
            {
              "internalType": "uint256",
              "name": "salt",
              "type": "uint256"
            },
            {
              "components": [
                {
                  "internalType": "address",
                  "name": "token",
                  "type": "address"
                },
                {
                  "internalType": "uint256",
                  "name": "tokenId",
                  "type": "uint256"
                },
                {
                  "internalType": "enum ExchangeDomainV1.AssetType",
                  "name": "assetType",
                  "type": "uint8"
                }
              ],
              "internalType": "struct ExchangeDomainV1.Asset",
              "name": "sellAsset",
              "type": "tuple"
            },
            {
              "components": [
                {
                  "internalType": "address",
                  "name": "token",
                  "type": "address"
                },
                {
                  "internalType": "uint256",
                  "name": "tokenId",
                  "type": "uint256"
                },
                {
                  "internalType": "enum ExchangeDomainV1.AssetType",
                  "name": "assetType",
                  "type": "uint8"
                }
              ],
              "internalType": "struct ExchangeDomainV1.Asset",
              "name": "buyAsset",
              "type": "tuple"
            }
          ],
          "internalType": "struct ExchangeDomainV1.OrderKey",
          "name": "key",
          "type": "tuple"
        }
      ],
      "name": "cancel",
      "outputs": [],
      "payable": false,
      "stateMutability": "nonpayable",
      "type": "function"
    },
    {
      "constant": true,
      "inputs": [
        {
          "components": [
            {
              "components": [
                {
                  "internalType": "address",
                  "name": "owner",
                  "type": "address"
                },
                {
                  "internalType": "uint256",
                  "name": "salt",
                  "type": "uint256"
                },
                {
                  "components": [
                    {
                      "internalType": "address",
                      "name": "token",
                      "type": "address"
                    },
                    {
                      "internalType": "uint256",
                      "name": "tokenId",
                      "type": "uint256"
                    },
                    {
                      "internalType": "enum ExchangeDomainV1.AssetType",
                      "name": "assetType",
                      "type": "uint8"
                    }
                  ],
                  "internalType": "struct ExchangeDomainV1.Asset",
                  "name": "sellAsset",
                  "type": "tuple"
                },
                {
                  "components": [
                    {
                      "internalType": "address",
                      "name": "token",
                      "type": "address"
                    },
                    {
                      "internalType": "uint256",
                      "name": "tokenId",
                      "type": "uint256"
                    },
                    {
                      "internalType": "enum ExchangeDomainV1.AssetType",
                      "name": "assetType",
                      "type": "uint8"
                    }
                  ],
                  "internalType": "struct ExchangeDomainV1.Asset",
                  "name": "buyAsset",
                  "type": "tuple"
                }
              ],
              "internalType": "struct ExchangeDomainV1.OrderKey",
              "name": "key",
              "type": "tuple"
            },
            {
              "internalType": "uint256",
              "name": "selling",
              "type": "uint256"
            },
            {
              "internalType": "uint256",
              "name": "buying",
              "type": "uint256"
            },
            {
              "internalType": "uint256",
              "name": "sellerFee",
              "type": "uint256"
            }
          ],
          "internalType": "struct ExchangeDomainV1.Order",
          "name": "order",
          "type": "tuple"
        },
        {
          "internalType": "uint256",
          "name": "fee",
          "type": "uint256"
        }
      ],
      "name": "prepareBuyerFeeMessage",
      "outputs": [
        {
          "internalType": "string",
          "name": "",
          "type": "string"
        }
      ],
      "payable": false,
      "stateMutability": "pure",
      "type": "function"
    },
    {
      "constant": true,
      "inputs": [
        {
          "components": [
            {
              "components": [
                {
                  "internalType": "address",
                  "name": "owner",
                  "type": "address"
                },
                {
                  "internalType": "uint256",
                  "name": "salt",
                  "type": "uint256"
                },
                {
                  "components": [
                    {
                      "internalType": "address",
                      "name": "token",
                      "type": "address"
                    },
                    {
                      "internalType": "uint256",
                      "name": "tokenId",
                      "type": "uint256"
                    },
                    {
                      "internalType": "enum ExchangeDomainV1.AssetType",
                      "name": "assetType",
                      "type": "uint8"
                    }
                  ],
                  "internalType": "struct ExchangeDomainV1.Asset",
                  "name": "sellAsset",
                  "type": "tuple"
                },
                {
                  "components": [
                    {
                      "internalType": "address",
                      "name": "token",
                      "type": "address"
                    },
                    {
                      "internalType": "uint256",
                      "name": "tokenId",
                      "type": "uint256"
                    },
                    {
                      "internalType": "enum ExchangeDomainV1.AssetType",
                      "name": "assetType",
                      "type": "uint8"
                    }
                  ],
                  "internalType": "struct ExchangeDomainV1.Asset",
                  "name": "buyAsset",
                  "type": "tuple"
                }
              ],
              "internalType": "struct ExchangeDomainV1.OrderKey",
              "name": "key",
              "type": "tuple"
            },
            {
              "internalType": "uint256",
              "name": "selling",
              "type": "uint256"
            },
            {
              "internalType": "uint256",
              "name": "buying",
              "type": "uint256"
            },
            {
              "internalType": "uint256",
              "name": "sellerFee",
              "type": "uint256"
            }
          ],
          "internalType": "struct ExchangeDomainV1.Order",
          "name": "order",
          "type": "tuple"
        }
      ],
      "name": "prepareMessage",
      "outputs": [
        {
          "internalType": "string",
          "name": "",
          "type": "string"
        }
      ],
      "payable": false,
      "stateMutability": "pure",
      "type": "function"
    }
  ],
  "bytecode": "0x60806040523480156200001157600080fd5b506040516200441138038062004411833981810160405262000037919081019062000364565b600062000049620002bb60201b60201c565b9050806000806101000a81548173ffffffffffffffffffffffffffffffffffffffff021916908373ffffffffffffffffffffffffffffffffffffffff1602179055508073ffffffffffffffffffffffffffffffffffffffff16600073ffffffffffffffffffffffffffffffffffffffff167f8be0079c531659141344cd1fd0a4f28419497f9722a3daafe3b4186f6b6457e060405160405180910390a35086600360006101000a81548173ffffffffffffffffffffffffffffffffffffffff021916908373ffffffffffffffffffffffffffffffffffffffff16021790555085600460006101000a81548173ffffffffffffffffffffffffffffffffffffffff021916908373ffffffffffffffffffffffffffffffffffffffff16021790555084600560006101000a81548173ffffffffffffffffffffffffffffffffffffffff021916908373ffffffffffffffffffffffffffffffffffffffff16021790555083600660006101000a81548173ffffffffffffffffffffffffffffffffffffffff021916908373ffffffffffffffffffffffffffffffffffffffff16021790555082600760006101000a81548173ffffffffffffffffffffffffffffffffffffffff021916908373ffffffffffffffffffffffffffffffffffffffff16021790555081600160006101000a81548173ffffffffffffffffffffffffffffffffffffffff021916908373ffffffffffffffffffffffffffffffffffffffff16021790555080600260006101000a81548173ffffffffffffffffffffffffffffffffffffffff021916908373ffffffffffffffffffffffffffffffffffffffff1602179055505050505050505062000573565b600033905090565b600081519050620002d481620004bd565b92915050565b600081519050620002eb81620004d7565b92915050565b6000815190506200030281620004f1565b92915050565b60008151905062000319816200050b565b92915050565b600081519050620003308162000525565b92915050565b60008151905062000347816200053f565b92915050565b6000815190506200035e8162000559565b92915050565b600080600080600080600060e0888a0312156200038057600080fd5b6000620003908a828b016200034d565b9750506020620003a38a828b0162000336565b9650506040620003b68a828b01620002f1565b9550506060620003c98a828b016200031f565b9450506080620003dc8a828b0162000308565b93505060a0620003ef8a828b01620002da565b92505060c0620004028a828b01620002c3565b91505092959891949750929550565b60006200041e826200049d565b9050919050565b600062000432826200049d565b9050919050565b6000620004468262000411565b9050919050565b60006200045a8262000411565b9050919050565b60006200046e8262000411565b9050919050565b6000620004828262000411565b9050919050565b6000620004968262000411565b9050919050565b600073ffffffffffffffffffffffffffffffffffffffff82169050919050565b620004c88162000411565b8114620004d457600080fd5b50565b620004e28162000425565b8114620004ee57600080fd5b50565b620004fc8162000439565b81146200050857600080fd5b50565b62000516816200044d565b81146200052257600080fd5b50565b620005308162000461565b81146200053c57600080fd5b50565b6200054a8162000475565b81146200055657600080fd5b50565b620005648162000489565b81146200057057600080fd5b50565b613e8e80620005836000396000f3fe6080604052600436106100fe5760003560e01c8063715018a6116100955780639cec6392116100645780639cec639214610313578063c19d93fb1461032f578063ca120b1f1461035a578063f2fde38b14610383578063fee03e9e146103ac576100fe565b8063715018a61461027b5780638da5cb5b146102925780638f32d59b146102bd5780639704dc44146102e8576100fe565b806338af3eed116100d157806338af3eed146101d15780634df97bc5146101fc57806355d5d326146102275780636e667db314610250576100fe565b806302329e1014610103578063049944b61461012e5780631b4c98741461016b5780631c31f710146101a8575b600080fd5b34801561010f57600080fd5b506101186103d7565b6040516101259190613724565b60405180910390f35b34801561013a57600080fd5b5061015560048036036101509190810190612d14565b6103fd565b604051610162919061375a565b60405180910390f35b34801561017757600080fd5b50610192600480360361018d9190810190612d3e565b610435565b60405161019f919061375a565b60405180910390f35b3480156101b457600080fd5b506101cf60048036036101ca9190810190612b0b565b610470565b005b3480156101dd57600080fd5b506101e66104fb565b6040516101f39190613508565b60405180910390f35b34801561020857600080fd5b50610211610521565b60405161021e91906134ed565b60405180910390f35b34801561023357600080fd5b5061024e60048036036102499190810190612ae2565b610547565b005b34801561025c57600080fd5b506102656105d2565b604051610272919061373f565b60405180910390f35b34801561028757600080fd5b506102906105f8565b005b34801561029e57600080fd5b506102a76106fe565b6040516102b491906134ed565b60405180910390f35b3480156102c957600080fd5b506102d2610727565b6040516102df9190613568565b60405180910390f35b3480156102f457600080fd5b506102fd610785565b60405161030a91906135fe565b60405180910390f35b61032d60048036036103289190810190612c85565b6107ab565b005b34801561033b57600080fd5b50610344610a83565b6040516103519190613619565b60405180910390f35b34801561036657600080fd5b50610381600480360361037c9190810190612c31565b610aa9565b005b34801561038f57600080fd5b506103aa60048036036103a59190810190612ae2565b610c6c565b005b3480156103b857600080fd5b506103c1610cbf565b6040516103ce91906135e3565b60405180910390f35b600460009054906101000a900473ffffffffffffffffffffffffffffffffffffffff1681565b606061042e82604051602001610413919061396e565b60405160208183030381529060405280519060200120610ce5565b9050919050565b6060610468838360405160200161044d92919061398a565b60405160208183030381529060405280519060200120610ce5565b905092915050565b610478610727565b6104b7576040517f08c379a00000000000000000000000000000000000000000000000000000000081526004016104ae9061385c565b60405180910390fd5b80600160006101000a81548173ffffffffffffffffffffffffffffffffffffffff021916908373ffffffffffffffffffffffffffffffffffffffff16021790555050565b600160009054906101000a900473ffffffffffffffffffffffffffffffffffffffff1681565b600260009054906101000a900473ffffffffffffffffffffffffffffffffffffffff1681565b61054f610727565b61058e576040517f08c379a00000000000000000000000000000000000000000000000000000000081526004016105859061385c565b60405180910390fd5b80600260006101000a81548173ffffffffffffffffffffffffffffffffffffffff021916908373ffffffffffffffffffffffffffffffffffffffff16021790555050565b600360009054906101000a900473ffffffffffffffffffffffffffffffffffffffff1681565b610600610727565b61063f576040517f08c379a00000000000000000000000000000000000000000000000000000000081526004016106369061385c565b60405180910390fd5b600073ffffffffffffffffffffffffffffffffffffffff166000809054906101000a900473ffffffffffffffffffffffffffffffffffffffff1673ffffffffffffffffffffffffffffffffffffffff167f8be0079c531659141344cd1fd0a4f28419497f9722a3daafe3b4186f6b6457e060405160405180910390a360008060006101000a81548173ffffffffffffffffffffffffffffffffffffffff021916908373ffffffffffffffffffffffffffffffffffffffff160217905550565b60008060009054906101000a900473ffffffffffffffffffffffffffffffffffffffff16905090565b60008060009054906101000a900473ffffffffffffffffffffffffffffffffffffffff1673ffffffffffffffffffffffffffffffffffffffff16610769610e82565b73ffffffffffffffffffffffffffffffffffffffff1614905090565b600760009054906101000a900473ffffffffffffffffffffffffffffffffffffffff1681565b6107d5868036036107bf9190810190612d14565b868036036107d09190810190612d7c565b610e8a565b610800868036036107e99190810190612d14565b85858036036107fb9190810190612d7c565b611052565b6000610831876101000135610823858a610120013561111290919063ffffffff16565b61118290919063ffffffff16565b90506108568760000180360361084a9190810190612c5b565b886101000135856111cc565b6000600481111561086357fe5b87600001604001604001602061087c9190810190612bdf565b600481111561088757fe5b14156108c8576040517f08c379a00000000000000000000000000000000000000000000000000000000081526004016108bf9061387c565b60405180910390fd5b600060048111156108d557fe5b8760000160a00160400160206108ee9190810190612bdf565b60048111156108f957fe5b141561090a57610909818661136b565b5b60006109468860000160400160400160206109289190810190612bdf565b8960000160a00160400160206109419190810190612bdf565b6113cb565b9050600073ffffffffffffffffffffffffffffffffffffffff168373ffffffffffffffffffffffffffffffffffffffff161415610981573392505b6109f08860000160400180360361099b9190810190612c08565b858a60000160000160206109b29190810190612ae2565b86600160028111156109c057fe5b8660028111156109cc57fe5b148b8e61014001358f60000160a0018036036109eb9190810190612c08565b611489565b610a5e8860000160a001803603610a0a9190810190612c08565b83338b6000016000016020610a229190810190612ae2565b600280811115610a2e57fe5b866002811115610a3a57fe5b148d61014001358c8f600001604001803603610a599190810190612c08565b611489565b610a7988803603610a729190810190612d14565b85856114b9565b5050505050505050565b600660009054906101000a900473ffffffffffffffffffffffffffffffffffffffff1681565b3373ffffffffffffffffffffffffffffffffffffffff16816000016020610ad39190810190612ae2565b73ffffffffffffffffffffffffffffffffffffffff1614610b29576040517f08c379a0000000000000000000000000000000000000000000000000000000008152600401610b209061389c565b60405180910390fd5b600660009054906101000a900473ffffffffffffffffffffffffffffffffffffffff1673ffffffffffffffffffffffffffffffffffffffff16633a076e9a827fffffffffffffffffffffffffffffffffffffffffffffffffffffffffffffffff6040518363ffffffff1660e01b8152600401610ba69291906138fc565b600060405180830381600087803b158015610bc057600080fd5b505af1158015610bd4573d6000803e3d6000fd5b505050508060400160200135816040016000016020610bf69190810190612ae2565b73ffffffffffffffffffffffffffffffffffffffff167fbfe0e802e586c99960de1a111c80f598b281996d65080d74dbe29986f55b274a338460a0016000016020610c449190810190612ae2565b8560a001602001358660200135604051610c619493929190613523565b60405180910390a350565b610c74610727565b610cb3576040517f08c379a0000000000000000000000000000000000000000000000000000000008152600401610caa9061385c565b60405180910390fd5b610cbc81611563565b50565b600560009054906101000a900473ffffffffffffffffffffffffffffffffffffffff1681565b6060806040518060400160405280601081526020017f303132333435363738396162636465660000000000000000000000000000000081525090506060604080519080825280601f01601f191660200182016040528015610d555781602001600182028038833980820191505090505b50905060008090505b6020811015610e7757826004868360208110610d7657fe5b1a60f81b7effffffffffffffffffffffffffffffffffffffffffffffffffffffffffffff1916901c60f81c60ff1681518110610dae57fe5b602001015160f81c60f81b826002830281518110610dc857fe5b60200101907effffffffffffffffffffffffffffffffffffffffffffffffffffffffffffff1916908160001a90535082600f60f81b868360208110610e0957fe5b1a60f81b1660f81c60ff1681518110610e1e57fe5b602001015160f81c60f81b826002830260010181518110610e3b57fe5b60200101907effffffffffffffffffffffffffffffffffffffffffffffffffffffffffffff1916908160001a9053508080600101915050610d5e565b508092505050919050565b600033905090565b6000816000015160ff16148015610ea757506000801b8160200151145b8015610eb957506000801b8160400151145b15610fad57600760009054906101000a900473ffffffffffffffffffffffffffffffffffffffff1673ffffffffffffffffffffffffffffffffffffffff16632aee7a31836040518263ffffffff1660e01b8152600401610f19919061396e565b60206040518083038186803b158015610f3157600080fd5b505afa158015610f45573d6000803e3d6000fd5b505050506040513d601f19601f82011682018060405250610f699190810190612bb6565b610fa8576040517f08c379a0000000000000000000000000000000000000000000000000000000008152600401610f9f906137fc565b60405180910390fd5b61104e565b81600001516000015173ffffffffffffffffffffffffffffffffffffffff16610ff7826000015183602001518460400151610fe7876103fd565b611691909392919063ffffffff16565b73ffffffffffffffffffffffffffffffffffffffff161461104d576040517f08c379a0000000000000000000000000000000000000000000000000000000008152600401611044906137fc565b60405180910390fd5b5b5050565b600260009054906101000a900473ffffffffffffffffffffffffffffffffffffffff1673ffffffffffffffffffffffffffffffffffffffff166110b78260000151836020015184604001516110a78888610435565b611691909392919063ffffffff16565b73ffffffffffffffffffffffffffffffffffffffff161461110d576040517f08c379a00000000000000000000000000000000000000000000000000000000081526004016111049061381c565b60405180910390fd5b505050565b600080831415611125576000905061117c565b600082840290508284828161113657fe5b0414611177576040517f08c379a000000000000000000000000000000000000000000000000000000000815260040161116e9061383c565b60405180910390fd5b809150505b92915050565b60006111c483836040518060400160405280601a81526020017f536166654d6174683a206469766973696f6e206279207a65726f00000000000081525061181b565b905092915050565b6000600660009054906101000a900473ffffffffffffffffffffffffffffffffffffffff1673ffffffffffffffffffffffffffffffffffffffff1663fb0000c0856040518263ffffffff1660e01b81526004016112299190613927565b60206040518083038186803b15801561124157600080fd5b505afa158015611255573d6000803e3d6000fd5b505050506040513d601f19601f820116820180604052506112799190810190612da5565b90506000611290838361187c90919063ffffffff16565b9050838111156112d5576040517f08c379a00000000000000000000000000000000000000000000000000000000081526004016112cc9061377c565b60405180910390fd5b600660009054906101000a900473ffffffffffffffffffffffffffffffffffffffff1673ffffffffffffffffffffffffffffffffffffffff16633a076e9a86836040518363ffffffff1660e01b8152600401611332929190613943565b600060405180830381600087803b15801561134c57600080fd5b505af1158015611360573d6000803e3d6000fd5b505050505050505050565b600061138082846118d190919063ffffffff16565b905080830134146113c6576040517f08c379a00000000000000000000000000000000000000000000000000000000081526004016113bd906138dc565b60405180910390fd5b505050565b6000600360048111156113da57fe5b8360048111156113e657fe5b148061140757506004808111156113f957fe5b83600481111561140557fe5b145b801561144957506003600481111561141b57fe5b82600481111561142757fe5b1480611448575060048081111561143a57fe5b82600481111561144657fe5b145b5b156114575760009050611483565b81600481111561146357fe5b83600481111561146f57fe5b111561147e5760029050611483565b600190505b92915050565b8361149f5761149a88888888611902565b6114af565b6114ae88888888878787611d2f565b5b5050505050505050565b826000015160400151602001518360000151604001516000015173ffffffffffffffffffffffffffffffffffffffff167fdddcdb07e460849cf04a4445b7af9faf01b7f5c7ba75deaf969ac5ed830312c3856020015186600001516000015187600001516060015160000151886000015160600151602001518960400151888a8c60000151602001516040516115569897969594939291906139d0565b60405180910390a3505050565b600073ffffffffffffffffffffffffffffffffffffffff168173ffffffffffffffffffffffffffffffffffffffff1614156115d3576040517f08c379a00000000000000000000000000000000000000000000000000000000081526004016115ca906137bc565b60405180910390fd5b8073ffffffffffffffffffffffffffffffffffffffff166000809054906101000a900473ffffffffffffffffffffffffffffffffffffffff1673ffffffffffffffffffffffffffffffffffffffff167f8be0079c531659141344cd1fd0a4f28419497f9722a3daafe3b4186f6b6457e060405160405180910390a3806000806101000a81548173ffffffffffffffffffffffffffffffffffffffff021916908373ffffffffffffffffffffffffffffffffffffffff16021790555050565b6000606085905060606117b76040518060400160405280601a81526020017f19457468657265756d205369676e6564204d6573736167653a0a0000000000008152506116dd84516120ad565b8460006040519080825280601f01601f1916602001820160405280156117125781602001600182028038833980820191505090505b5060006040519080825280601f01601f1916602001820160405280156117475781602001600182028038833980820191505090505b5060006040519080825280601f01601f19166020018201604052801561177c5781602001600182028038833980820191505090505b5060006040519080825280601f01601f1916602001820160405280156117b15781602001600182028038833980820191505090505b506121da565b905060018180519060200120878787604051600081526020016040526040516117e39493929190613583565b6020604051602081039080840390855afa158015611805573d6000803e3d6000fd5b5050506020604051035192505050949350505050565b60008083118290611862576040517f08c379a0000000000000000000000000000000000000000000000000000000008152600401611859919061375a565b60405180910390fd5b50600083858161186e57fe5b049050809150509392505050565b6000808284019050838110156118c7576040517f08c379a00000000000000000000000000000000000000000000000000000000081526004016118be906137dc565b60405180910390fd5b8091505092915050565b60006118fa6127106118ec848661111290919063ffffffff16565b61118290919063ffffffff16565b905092915050565b6000600481111561190f57fe5b8460400151600481111561191f57fe5b14156119775760008190508073ffffffffffffffffffffffffffffffffffffffff166108fc859081150290604051600060405180830381858888f19350505050158015611970573d6000803e3d6000fd5b5050611d29565b6001600481111561198457fe5b8460400151600481111561199457fe5b1415611a7d5760008460200151146119e1576040517f08c379a00000000000000000000000000000000000000000000000000000000081526004016119d8906138bc565b60405180910390fd5b600560009054906101000a900473ffffffffffffffffffffffffffffffffffffffff1673ffffffffffffffffffffffffffffffffffffffff1663776062c385600001518484876040518563ffffffff1660e01b8152600401611a46949392919061369a565b600060405180830381600087803b158015611a6057600080fd5b505af1158015611a74573d6000803e3d6000fd5b50505050611d28565b60036004811115611a8a57fe5b84604001516004811115611a9a57fe5b1415611b835760018314611ae3576040517f08c379a0000000000000000000000000000000000000000000000000000000008152600401611ada9061379c565b60405180910390fd5b600360009054906101000a900473ffffffffffffffffffffffffffffffffffffffff1673ffffffffffffffffffffffffffffffffffffffff1663f709b9068560000151848488602001516040518563ffffffff1660e01b8152600401611b4c94939291906136df565b600060405180830381600087803b158015611b6657600080fd5b505af1158015611b7a573d6000803e3d6000fd5b50505050611d27565b600480811115611b8f57fe5b84604001516004811115611b9f57fe5b1415611c885760018314611be8576040517f08c379a0000000000000000000000000000000000000000000000000000000008152600401611bdf9061379c565b60405180910390fd5b600460009054906101000a900473ffffffffffffffffffffffffffffffffffffffff1673ffffffffffffffffffffffffffffffffffffffff16638450ebe48560000151848488602001516040518563ffffffff1660e01b8152600401611c5194939291906136df565b600060405180830381600087803b158015611c6b57600080fd5b505af1158015611c7f573d6000803e3d6000fd5b50505050611d26565b600360009054906101000a900473ffffffffffffffffffffffffffffffffffffffff1673ffffffffffffffffffffffffffffffffffffffff16639c1c2ee9856000015184848860200151886040518663ffffffff1660e01b8152600401611cf3959493929190613634565b600060405180830381600087803b158015611d0d57600080fd5b505af1158015611d21573d6000803e3d6000fd5b505050505b5b5b5b50505050565b6000611d3e888789878761256e565b905060026004811115611d4d57fe5b82604001516004811115611d5d57fe5b148015611dfa5750816000015173ffffffffffffffffffffffffffffffffffffffff166301ffc9a763b779958460e01b6040518263ffffffff1660e01b8152600401611da991906135c8565b60206040518083038186803b158015611dc157600080fd5b505afa158015611dd5573d6000803e3d6000fd5b505050506040513d601f19601f82011682018060405250611df99190810190612bb6565b5b80611edf575060036004811115611e0d57fe5b82604001516004811115611e1d57fe5b1480611e425750600480811115611e3057fe5b82604001516004811115611e4057fe5b145b8015611ede5750816000015173ffffffffffffffffffffffffffffffffffffffff166301ffc9a763b779958460e01b6040518263ffffffff1660e01b8152600401611e8d91906135c8565b60206040518083038186803b158015611ea557600080fd5b505afa158015611eb9573d6000803e3d6000fd5b505050506040513d601f19601f82011682018060405250611edd9190810190612bb6565b5b5b156120915760008260000151905060608173ffffffffffffffffffffffffffffffffffffffff1663b9c4d9fb85602001516040518263ffffffff1660e01b8152600401611f2c91906139b5565b60006040518083038186803b158015611f4457600080fd5b505afa158015611f58573d6000803e3d6000fd5b505050506040513d6000823e3d601f19601f82011682018060405250611f819190810190612b34565b905060608273ffffffffffffffffffffffffffffffffffffffff16630ebd4c7f86602001516040518263ffffffff1660e01b8152600401611fc291906139b5565b60006040518083038186803b158015611fda57600080fd5b505afa158015611fee573d6000803e3d6000fd5b505050506040513d6000823e3d601f19601f820116820180604052506120179190810190612b75565b9050815181511461202757600080fd5b60008090505b815181101561208c57600080612057878e86868151811061204a57fe5b60200260200101516125f8565b9150915081965061207d8e828e88878151811061207057fe5b6020026020010151611902565b5050808060010191505061202d565b505050505b60008590506120a289838984611902565b505050505050505050565b606060008214156120f5576040518060400160405280600181526020017f300000000000000000000000000000000000000000000000000000000000000081525090506121d5565b600082905060005b6000821461211f578080600101915050600a828161211757fe5b0491506120fd565b6060816040519080825280601f01601f1916602001820160405280156121545781602001600182028038833980820191505090505b50905060006001830390505b600086146121cd57600a868161217257fe5b0660300160f81b8282806001900393508151811061218c57fe5b60200101907effffffffffffffffffffffffffffffffffffffffffffffffffffffffffffff1916908160001a905350600a86816121c557fe5b049550612160565b819450505050505b919050565b60608082518451865188518a518c518e510101010101016040519080825280601f01601f1916602001820160405280156122235781602001600182028038833980820191505090505b509050600080905060008090505b8a5181101561229f578a818151811061224657fe5b602001015160f81c60f81b83838060010194508151811061226357fe5b60200101907effffffffffffffffffffffffffffffffffffffffffffffffffffffffffffff1916908160001a9053508080600101915050612231565b5060008090505b8951811015612314578981815181106122bb57fe5b602001015160f81c60f81b8383806001019450815181106122d857fe5b60200101907effffffffffffffffffffffffffffffffffffffffffffffffffffffffffffff1916908160001a90535080806001019150506122a6565b5060008090505b88518110156123895788818151811061233057fe5b602001015160f81c60f81b83838060010194508151811061234d57fe5b60200101907effffffffffffffffffffffffffffffffffffffffffffffffffffffffffffff1916908160001a905350808060010191505061231b565b5060008090505b87518110156123fe578781815181106123a557fe5b602001015160f81c60f81b8383806001019450815181106123c257fe5b60200101907effffffffffffffffffffffffffffffffffffffffffffffffffffffffffffff1916908160001a9053508080600101915050612390565b5060008090505b86518110156124735786818151811061241a57fe5b602001015160f81c60f81b83838060010194508151811061243757fe5b60200101907effffffffffffffffffffffffffffffffffffffffffffffffffffffffffffff1916908160001a9053508080600101915050612405565b5060008090505b85518110156124e85785818151811061248f57fe5b602001015160f81c60f81b8383806001019450815181106124ac57fe5b60200101907effffffffffffffffffffffffffffffffffffffffffffffffffffffffffffff1916908160001a905350808060010191505061247a565b5060008090505b845181101561255d5784818151811061250457fe5b602001015160f81c60f81b83838060010194508151811061252157fe5b60200101907effffffffffffffffffffffffffffffffffffffffffffffffffffffffffffff1916908160001a90535080806001019150506124ef565b508192505050979650505050505050565b600080600061257e8687876125f8565b91509150600061259785886118d190919063ffffffff16565b905060006125ae838361187c90919063ffffffff16565b905060008111156125e8576125e78a828b600160009054906101000a900473ffffffffffffffffffffffffffffffffffffffff16611902565b5b8394505050505095945050505050565b6000806126178561261285876118d190919063ffffffff16565b612623565b91509150935093915050565b6000808284111561263b578284039150829050612643565b600091508390505b9250929050565b60008135905061265981613db1565b92915050565b60008135905061266e81613dc8565b92915050565b60008151905061268381613dc8565b92915050565b600082601f83011261269a57600080fd5b81516126ad6126a882613a7b565b613a4e565b915081818352602084019350602081019050838560208402820111156126d257600080fd5b60005b8381101561270257816126e88882612674565b8452602084019350602083019250506001810190506126d5565b5050505092915050565b600082601f83011261271d57600080fd5b815161273061272b82613aa3565b613a4e565b9150818183526020840193506020810190508385602084028201111561275557600080fd5b60005b83811015612785578161276b8882612ab8565b845260208401935060208301925050600181019050612758565b5050505092915050565b60008151905061279e81613ddf565b92915050565b6000813590506127b381613df6565b92915050565b6000813590506127c881613e0d565b92915050565b6000606082840312156127e057600080fd5b6127ea6060613a4e565b905060006127fa8482850161264a565b600083015250602061280e84828501612aa3565b6020830152506040612822848285016127b9565b60408301525092915050565b60006060828403121561284057600080fd5b61284a6060613a4e565b9050600061285a8482850161264a565b600083015250602061286e84828501612aa3565b6020830152506040612882848285016127b9565b60408301525092915050565b600061010082840312156128a157600080fd5b81905092915050565b600061010082840312156128bd57600080fd5b6128c76080613a4e565b905060006128d78482850161264a565b60008301525060206128eb84828501612aa3565b60208301525060406128ff848285016127ce565b60408301525060a0612913848285016127ce565b60608301525092915050565b6000610100828403121561293257600080fd5b61293c6080613a4e565b9050600061294c8482850161264a565b600083015250602061296084828501612aa3565b6020830152506040612974848285016127ce565b60408301525060a0612988848285016127ce565b60608301525092915050565b600061016082840312156129a757600080fd5b81905092915050565b600061016082840312156129c357600080fd5b6129cd6080613a4e565b905060006129dd848285016128aa565b6000830152506101006129f284828501612aa3565b602083015250610120612a0784828501612aa3565b604083015250610140612a1c84828501612aa3565b60608301525092915050565b600060608284031215612a3a57600080fd5b81905092915050565b600060608284031215612a5557600080fd5b612a5f6060613a4e565b90506000612a6f84828501612acd565b6000830152506020612a83848285016127a4565b6020830152506040612a97848285016127a4565b60408301525092915050565b600081359050612ab281613e1d565b92915050565b600081519050612ac781613e1d565b92915050565b600081359050612adc81613e34565b92915050565b600060208284031215612af457600080fd5b6000612b028482850161264a565b91505092915050565b600060208284031215612b1d57600080fd5b6000612b2b8482850161265f565b91505092915050565b600060208284031215612b4657600080fd5b600082015167ffffffffffffffff811115612b6057600080fd5b612b6c84828501612689565b91505092915050565b600060208284031215612b8757600080fd5b600082015167ffffffffffffffff811115612ba157600080fd5b612bad8482850161270c565b91505092915050565b600060208284031215612bc857600080fd5b6000612bd68482850161278f565b91505092915050565b600060208284031215612bf157600080fd5b6000612bff848285016127b9565b91505092915050565b600060608284031215612c1a57600080fd5b6000612c288482850161282e565b91505092915050565b60006101008284031215612c4457600080fd5b6000612c528482850161288e565b91505092915050565b60006101008284031215612c6e57600080fd5b6000612c7c8482850161291f565b91505092915050565b6000806000806000806102808789031215612c9f57600080fd5b6000612cad89828a01612994565b965050610160612cbf89828a01612a28565b9550506101c0612cd189828a01612aa3565b9450506101e0612ce389828a01612a28565b935050610240612cf589828a01612aa3565b925050610260612d0789828a0161264a565b9150509295509295509295565b60006101608284031215612d2757600080fd5b6000612d35848285016129b0565b91505092915050565b6000806101808385031215612d5257600080fd5b6000612d60858286016129b0565b925050610160612d7285828601612aa3565b9150509250929050565b600060608284031215612d8e57600080fd5b6000612d9c84828501612a43565b91505092915050565b600060208284031215612db757600080fd5b6000612dc584828501612ab8565b91505092915050565b612dd781613bf8565b82525050565b612de681613b5a565b82525050565b612df581613b48565b82525050565b612e0481613b48565b82525050565b612e1381613b6c565b82525050565b612e2281613b78565b82525050565b612e3181613b82565b82525050565b612e4081613c0a565b82525050565b612e4f81613c2e565b82525050565b612e5e81613c52565b82525050565b612e6d81613c76565b82525050565b612e7c81613c9a565b82525050565b612e8b81613cbe565b82525050565b612e9a81613ce2565b82525050565b612ea981613d06565b82525050565b612eb881613d2a565b82525050565b6000612ec982613acb565b612ed38185613ae7565b9350612ee3818560208601613d60565b612eec81613d93565b840191505092915050565b6000612f04602483613ae7565b91507f6e6f7420656e6f7567682073746f636b206f66206f7264657220666f7220627560008301527f79696e67000000000000000000000000000000000000000000000000000000006020830152604082019050919050565b6000612f6a601d83613ae7565b91507f76616c75652073686f756c64206265203120666f72204552432d3732310000006000830152602082019050919050565b6000612faa602683613ae7565b91507f4f776e61626c653a206e6577206f776e657220697320746865207a65726f206160008301527f64647265737300000000000000000000000000000000000000000000000000006020830152604082019050919050565b6000613010601b83613ae7565b91507f536166654d6174683a206164646974696f6e206f766572666c6f7700000000006000830152602082019050919050565b6000613050601383613ae7565b91507f696e636f7272656374207369676e6174757265000000000000000000000000006000830152602082019050919050565b6000613090601d83613ae7565b91507f696e636f727265637420627579657220666565207369676e61747572650000006000830152602082019050919050565b60006130d0602183613ae7565b91507f536166654d6174683a206d756c7469706c69636174696f6e206f766572666c6f60008301527f77000000000000000000000000000000000000000000000000000000000000006020830152604082019050919050565b6000613136602083613ae7565b91507f4f776e61626c653a2063616c6c6572206973206e6f7420746865206f776e65726000830152602082019050919050565b6000613176602183613ae7565b91507f455448206973206e6f7420737570706f72746564206f6e2073656c6c2073696460008301527f65000000000000000000000000000000000000000000000000000000000000006020830152604082019050919050565b60006131dc600083613ad6565b9150600082019050919050565b60006131f6600c83613ae7565b91507f6e6f7420616e206f776e657200000000000000000000000000000000000000006000830152602082019050919050565b6000613236601383613ae7565b91507f746f6b656e49642073686f756c642062652030000000000000000000000000006000830152602082019050919050565b6000613276601683613ae7565b91507f6d73672e76616c756520697320696e636f7272656374000000000000000000006000830152602082019050919050565b606082016132ba6000830183613af8565b6132c76000850182612dec565b506132d56020830183613b31565b6132e260208501826134c0565b506132f06040830183613b0f565b6132fd6040850182612eaf565b50505050565b6060820160008201516133196000850182612dec565b50602082015161332c60208501826134c0565b50604082015161333f6040850182612eaf565b50505050565b61010082016133576000830183613af8565b6133646000850182612dec565b506133726020830183613b31565b61337f60208501826134c0565b5061338d6040830183613b26565b61339a60408501826132a9565b506133a860a0830183613b26565b6133b560a08501826132a9565b50505050565b610100820160008201516133d26000850182612dec565b5060208201516133e560208501826134c0565b5060408201516133f86040850182613303565b50606082015161340b60a0850182613303565b50505050565b610100820160008201516134286000850182612dec565b50602082015161343b60208501826134c0565b50604082015161344e6040850182613303565b50606082015161346160a0850182613303565b50505050565b6101608201600082015161347e6000850182613411565b5060208201516134926101008501826134c0565b5060408201516134a66101208501826134c0565b5060608201516134ba6101408501826134c0565b50505050565b6134c981613be1565b82525050565b6134d881613be1565b82525050565b6134e781613beb565b82525050565b60006020820190506135026000830184612dfb565b92915050565b600060208201905061351d6000830184612ddd565b92915050565b60006080820190506135386000830187612dce565b6135456020830186612dfb565b61355260408301856134cf565b61355f60608301846134cf565b95945050505050565b600060208201905061357d6000830184612e0a565b92915050565b60006080820190506135986000830187612e19565b6135a560208301866134de565b6135b26040830185612e19565b6135bf6060830184612e19565b95945050505050565b60006020820190506135dd6000830184612e28565b92915050565b60006020820190506135f86000830184612e37565b92915050565b60006020820190506136136000830184612e46565b92915050565b600060208201905061362e6000830184612e55565b92915050565b600060c0820190506136496000830188612e64565b6136566020830187612dfb565b6136636040830186612dfb565b61367060608301856134cf565b61367d60808301846134cf565b81810360a083015261368e816131cf565b90509695505050505050565b60006080820190506136af6000830187612e73565b6136bc6020830186612dfb565b6136c96040830185612dfb565b6136d660608301846134cf565b95945050505050565b60006080820190506136f46000830187612e82565b6137016020830186612dfb565b61370e6040830185612dfb565b61371b60608301846134cf565b95945050505050565b60006020820190506137396000830184612e91565b92915050565b60006020820190506137546000830184612ea0565b92915050565b600060208201905081810360008301526137748184612ebe565b905092915050565b6000602082019050818103600083015261379581612ef7565b9050919050565b600060208201905081810360008301526137b581612f5d565b9050919050565b600060208201905081810360008301526137d581612f9d565b9050919050565b600060208201905081810360008301526137f581613003565b9050919050565b6000602082019050818103600083015261381581613043565b9050919050565b6000602082019050818103600083015261383581613083565b9050919050565b60006020820190508181036000830152613855816130c3565b9050919050565b6000602082019050818103600083015261387581613129565b9050919050565b6000602082019050818103600083015261389581613169565b9050919050565b600060208201905081810360008301526138b5816131e9565b9050919050565b600060208201905081810360008301526138d581613229565b9050919050565b600060208201905081810360008301526138f581613269565b9050919050565b6000610120820190506139126000830185613345565b6139206101008301846134cf565b9392505050565b60006101008201905061393d60008301846133bb565b92915050565b60006101208201905061395960008301856133bb565b6139676101008301846134cf565b9392505050565b6000610160820190506139846000830184613467565b92915050565b6000610180820190506139a06000830185613467565b6139ae6101608301846134cf565b9392505050565b60006020820190506139ca60008301846134cf565b92915050565b6000610100820190506139e6600083018b6134cf565b6139f3602083018a612dfb565b613a006040830189612dfb565b613a0d60608301886134cf565b613a1a60808301876134cf565b613a2760a0830186612dfb565b613a3460c08301856134cf565b613a4160e08301846134cf565b9998505050505050505050565b6000604051905081810181811067ffffffffffffffff82111715613a7157600080fd5b8060405250919050565b600067ffffffffffffffff821115613a9257600080fd5b602082029050602081019050919050565b600067ffffffffffffffff821115613aba57600080fd5b602082029050602081019050919050565b600081519050919050565b600082825260208201905092915050565b600082825260208201905092915050565b6000613b07602084018461264a565b905092915050565b6000613b1e60208401846127b9565b905092915050565b600082905092915050565b6000613b406020840184612aa3565b905092915050565b6000613b5382613bc1565b9050919050565b6000613b6582613bc1565b9050919050565b60008115159050919050565b6000819050919050565b60007fffffffff0000000000000000000000000000000000000000000000000000000082169050919050565b6000819050613bbc82613da4565b919050565b600073ffffffffffffffffffffffffffffffffffffffff82169050919050565b6000819050919050565b600060ff82169050919050565b6000613c0382613d3c565b9050919050565b6000613c1582613c1c565b9050919050565b6000613c2782613bc1565b9050919050565b6000613c3982613c40565b9050919050565b6000613c4b82613bc1565b9050919050565b6000613c5d82613c64565b9050919050565b6000613c6f82613bc1565b9050919050565b6000613c8182613c88565b9050919050565b6000613c9382613bc1565b9050919050565b6000613ca582613cac565b9050919050565b6000613cb782613bc1565b9050919050565b6000613cc982613cd0565b9050919050565b6000613cdb82613bc1565b9050919050565b6000613ced82613cf4565b9050919050565b6000613cff82613bc1565b9050919050565b6000613d1182613d18565b9050919050565b6000613d2382613bc1565b9050919050565b6000613d3582613bae565b9050919050565b6000613d4782613d4e565b9050919050565b6000613d5982613bc1565b9050919050565b60005b83811015613d7e578082015181840152602081019050613d63565b83811115613d8d576000848401525b50505050565b6000601f19601f8301169050919050565b60058110613dae57fe5b50565b613dba81613b48565b8114613dc557600080fd5b50565b613dd181613b5a565b8114613ddc57600080fd5b50565b613de881613b6c565b8114613df357600080fd5b50565b613dff81613b78565b8114613e0a57600080fd5b50565b60058110613e1a57600080fd5b50565b613e2681613be1565b8114613e3157600080fd5b50565b613e3d81613beb565b8114613e4857600080fd5b5056fea365627a7a72315820a50bdbf79b8dd2b5631d31d1fe86267b195a044ed6f290fa95fa57de18b466ab6c6578706572696d656e74616cf564736f6c63430005110040",
  "source": "pragma solidity ^0.5.0;\r\npragma experimental ABIEncoderV2;\r\n\r\nimport './SafeMath.sol';\r\nimport './UintLibrary.sol';\r\nimport './StringLibrary.sol';\r\nimport './BytesLibrary.sol';\r\nimport './Ownable.sol';\r\nimport './ExchangeDomainV1.sol';\r\nimport './TransferProxy.sol';\r\nimport './TransferProxyForDeprecated.sol';\r\nimport './ERC20TransferProxy.sol';\r\nimport './ExchangeStateV1.sol';\r\nimport './ExchangeOrdersHolderV1.sol';\r\nimport './HasSecondarySaleFees.sol';\r\n\r\ncontract ExchangeV1 is Ownable, ExchangeDomainV1 {\r\n    using SafeMath for uint;\r\n    using UintLibrary for uint;\r\n    using StringLibrary for string;\r\n    using BytesLibrary for bytes32;\r\n\r\n    enum FeeSide {NONE, SELL, BUY}\r\n\r\n    event Buy(\r\n        address indexed sellToken, uint256 indexed sellTokenId, uint256 sellValue,\r\n        address owner,\r\n        address buyToken, uint256 buyTokenId, uint256 buyValue,\r\n        address buyer,\r\n        uint256 amount,\r\n        uint256 salt\r\n    );\r\n\r\n    event Cancel(\r\n        address indexed sellToken, uint256 indexed sellTokenId,\r\n        address owner,\r\n        address buyToken, uint256 buyTokenId,\r\n        uint256 salt\r\n    );\r\n\r\n    bytes4 private constant _INTERFACE_ID_FEES = 0xb7799584;\r\n    uint256 private constant UINT256_MAX = 2 ** 256 - 1;\r\n\r\n    address payable public beneficiary;\r\n    address public buyerFeeSigner;\r\n\r\n    TransferProxy public transferProxy;\r\n    TransferProxyForDeprecated public transferProxyForDeprecated;\r\n    ERC20TransferProxy public erc20TransferProxy;\r\n    ExchangeStateV1 public state;\r\n    ExchangeOrdersHolderV1 public ordersHolder;\r\n\r\n    constructor(\r\n        TransferProxy _transferProxy, TransferProxyForDeprecated _transferProxyForDeprecated, ERC20TransferProxy _erc20TransferProxy, ExchangeStateV1 _state,\r\n        ExchangeOrdersHolderV1 _ordersHolder, address payable _beneficiary, address _buyerFeeSigner\r\n    ) public {\r\n        transferProxy = _transferProxy;\r\n        transferProxyForDeprecated = _transferProxyForDeprecated;\r\n        erc20TransferProxy = _erc20TransferProxy;\r\n        state = _state;\r\n        ordersHolder = _ordersHolder;\r\n        beneficiary = _beneficiary;\r\n        buyerFeeSigner = _buyerFeeSigner;\r\n    }\r\n\r\n    function setBeneficiary(address payable newBeneficiary) external onlyOwner {\r\n        beneficiary = newBeneficiary;\r\n    }\r\n\r\n    function setBuyerFeeSigner(address newBuyerFeeSigner) external onlyOwner {\r\n        buyerFeeSigner = newBuyerFeeSigner;\r\n    }\r\n\r\n    function exchange(\r\n        Order calldata order,\r\n        Sig calldata sig,\r\n        uint buyerFee,\r\n        Sig calldata buyerFeeSig,\r\n        uint amount,\r\n        address buyer\r\n    ) payable external {\r\n        validateOrderSig(order, sig);\r\n        validateBuyerFeeSig(order, buyerFee, buyerFeeSig);\r\n        uint paying = order.buying.mul(amount).div(order.selling);\r\n        verifyOpenAndModifyOrderState(order.key, order.selling, amount);\r\n        require(order.key.sellAsset.assetType != AssetType.ETH, \"ETH is not supported on sell side\");\r\n        if (order.key.buyAsset.assetType == AssetType.ETH) {\r\n            validateEthTransfer(paying, buyerFee);\r\n        }\r\n        FeeSide feeSide = getFeeSide(order.key.sellAsset.assetType, order.key.buyAsset.assetType);\r\n        if (buyer == address(0x0)) {\r\n            buyer = msg.sender;\r\n        }\r\n        transferWithFeesPossibility(order.key.sellAsset, amount, order.key.owner, buyer, feeSide == FeeSide.SELL, buyerFee, order.sellerFee, order.key.buyAsset);\r\n        transferWithFeesPossibility(order.key.buyAsset, paying, msg.sender, order.key.owner, feeSide == FeeSide.BUY, order.sellerFee, buyerFee, order.key.sellAsset);\r\n        emitBuy(order, amount, buyer);\r\n    }\r\n\r\n    function validateEthTransfer(uint value, uint buyerFee) internal view {\r\n        uint256 buyerFeeValue = value.bp(buyerFee);\r\n        require(msg.value == value + buyerFeeValue, \"msg.value is incorrect\");\r\n    }\r\n\r\n    function cancel(OrderKey calldata key) external {\r\n        require(key.owner == msg.sender, \"not an owner\");\r\n        state.setCompleted(key, UINT256_MAX);\r\n        emit Cancel(key.sellAsset.token, key.sellAsset.tokenId, msg.sender, key.buyAsset.token, key.buyAsset.tokenId, key.salt);\r\n    }\r\n\r\n    function validateOrderSig(\r\n        Order memory order,\r\n        Sig memory sig\r\n    ) internal view {\r\n        if (sig.v == 0 && sig.r == bytes32(0x0) && sig.s == bytes32(0x0)) {\r\n            require(ordersHolder.exists(order), \"incorrect signature\");\r\n        } else {\r\n            require(prepareMessage(order).recover(sig.v, sig.r, sig.s) == order.key.owner, \"incorrect signature\");\r\n        }\r\n    }\r\n\r\n    function validateBuyerFeeSig(\r\n        Order memory order,\r\n        uint buyerFee,\r\n        Sig memory sig\r\n    ) internal view {\r\n        require(prepareBuyerFeeMessage(order, buyerFee).recover(sig.v, sig.r, sig.s) == buyerFeeSigner, \"incorrect buyer fee signature\");\r\n    }\r\n\r\n    function prepareBuyerFeeMessage(Order memory order, uint fee) public pure returns (string memory) {\r\n        return keccak256(abi.encode(order, fee)).toString();\r\n    }\r\n\r\n    function prepareMessage(Order memory order) public pure returns (string memory) {\r\n        return keccak256(abi.encode(order)).toString();\r\n    }\r\n\r\n    function transferWithFeesPossibility(Asset memory firstType, uint value, address from, address to, bool hasFee, uint256 sellerFee, uint256 buyerFee, Asset memory secondType) internal {\r\n        if (!hasFee) {\r\n            transfer(firstType, value, from, to);\r\n        } else {\r\n            transferWithFees(firstType, value, from, to, sellerFee, buyerFee, secondType);\r\n        }\r\n    }\r\n\r\n    function transfer(Asset memory asset, uint value, address from, address to) internal {\r\n        if (asset.assetType == AssetType.ETH) {\r\n            address payable toPayable = address(uint160(to));\r\n            toPayable.transfer(value);\r\n        } else if (asset.assetType == AssetType.ERC20) {\r\n            require(asset.tokenId == 0, \"tokenId should be 0\");\r\n            erc20TransferProxy.erc20safeTransferFrom(IERC20(asset.token), from, to, value);\r\n        } else if (asset.assetType == AssetType.ERC721) {\r\n            require(value == 1, \"value should be 1 for ERC-721\");\r\n            transferProxy.erc721safeTransferFrom(IERC721(asset.token), from, to, asset.tokenId);\r\n        } else if (asset.assetType == AssetType.ERC721Deprecated) {\r\n            require(value == 1, \"value should be 1 for ERC-721\");\r\n            transferProxyForDeprecated.erc721TransferFrom(IERC721(asset.token), from, to, asset.tokenId);\r\n        } else {\r\n            transferProxy.erc1155safeTransferFrom(IERC1155(asset.token), from, to, asset.tokenId, value, \"\");\r\n        }\r\n    }\r\n\r\n    function transferWithFees(Asset memory firstType, uint value, address from, address to, uint256 sellerFee, uint256 buyerFee, Asset memory secondType) internal {\r\n        uint restValue = transferFeeToBeneficiary(firstType, from, value, sellerFee, buyerFee);\r\n        if (\r\n            secondType.assetType == AssetType.ERC1155 && IERC1155(secondType.token).supportsInterface(_INTERFACE_ID_FEES) ||\r\n            (secondType.assetType == AssetType.ERC721 || secondType.assetType == AssetType.ERC721Deprecated) && IERC721(secondType.token).supportsInterface(_INTERFACE_ID_FEES)\r\n        ) {\r\n            HasSecondarySaleFees withFees = HasSecondarySaleFees(secondType.token);\r\n            address payable[] memory recipients = withFees.getFeeRecipients(secondType.tokenId);\r\n            uint[] memory fees = withFees.getFeeBps(secondType.tokenId);\r\n            require(fees.length == recipients.length);\r\n            for (uint256 i = 0; i < fees.length; i++) {\r\n                (uint newRestValue, uint current) = subFeeInBp(restValue, value, fees[i]);\r\n                restValue = newRestValue;\r\n                transfer(firstType, current, from, recipients[i]);\r\n            }\r\n        }\r\n        address payable toPayable = address(uint160(to));\r\n        transfer(firstType, restValue, from, toPayable);\r\n    }\r\n\r\n    function transferFeeToBeneficiary(Asset memory asset, address from, uint total, uint sellerFee, uint buyerFee) internal returns (uint) {\r\n        (uint restValue, uint sellerFeeValue) = subFeeInBp(total, total, sellerFee);\r\n        uint buyerFeeValue = total.bp(buyerFee);\r\n        uint beneficiaryFee = buyerFeeValue.add(sellerFeeValue);\r\n        if (beneficiaryFee > 0) {\r\n            transfer(asset, beneficiaryFee, from, beneficiary);\r\n        }\r\n        return restValue;\r\n    }\r\n\r\n    function emitBuy(Order memory order, uint amount, address buyer) internal {\r\n        emit Buy(order.key.sellAsset.token, order.key.sellAsset.tokenId, order.selling,\r\n            order.key.owner,\r\n            order.key.buyAsset.token, order.key.buyAsset.tokenId, order.buying,\r\n            buyer,\r\n            amount,\r\n            order.key.salt\r\n        );\r\n    }\r\n\r\n    function subFeeInBp(uint value, uint total, uint feeInBp) internal pure returns (uint newValue, uint realFee) {\r\n        return subFee(value, total.bp(feeInBp));\r\n    }\r\n\r\n    function subFee(uint value, uint fee) internal pure returns (uint newValue, uint realFee) {\r\n        if (value > fee) {\r\n            newValue = value - fee;\r\n            realFee = fee;\r\n        } else {\r\n            newValue = 0;\r\n            realFee = value;\r\n        }\r\n    }\r\n\r\n    function verifyOpenAndModifyOrderState(OrderKey memory key, uint selling, uint amount) internal {\r\n        uint completed = state.getCompleted(key);\r\n        uint newCompleted = completed.add(amount);\r\n        require(newCompleted <= selling, \"not enough stock of order for buying\");\r\n        state.setCompleted(key, newCompleted);\r\n    }\r\n\r\n    function getFeeSide(AssetType sellType, AssetType buyType) internal pure returns (FeeSide) {\r\n        if ((sellType == AssetType.ERC721 || sellType == AssetType.ERC721Deprecated) &&\r\n            (buyType == AssetType.ERC721 || buyType == AssetType.ERC721Deprecated)) {\r\n            return FeeSide.NONE;\r\n        }\r\n        if (uint(sellType) > uint(buyType)) {\r\n            return FeeSide.BUY;\r\n        }\r\n        return FeeSide.SELL;\r\n    }\r\n}",
  "sourcePath": "A:/project_2021/0422-NFT-Marketplace/work/BrandonMarketing-Contract/contracts/ExchangeV1.sol",
  "compiler": {
    "name": "solc",
    "version": "0.5.17+commit.d19bba13.Emscripten.clang"
  },
  "schemaVersion": "3.3.4",
  "updatedAt": "2021-05-11T16:03:24.014Z",
  "networkType": "ethereum",
  "devdoc": {
    "methods": {
      "isOwner()": {
        "details": "Returns true if the caller is the current owner."
      },
      "owner()": {
        "details": "Returns the address of the current owner."
      },
      "renounceOwnership()": {
        "details": "Leaves the contract without owner. It will not be possible to call `onlyOwner` functions anymore. Can only be called by the current owner.      * NOTE: Renouncing ownership will leave the contract without an owner, thereby removing any functionality that is only available to the owner."
      },
      "transferOwnership(address)": {
        "details": "Transfers ownership of the contract to a new account (`newOwner`). Can only be called by the current owner."
      }
    }
  },
  "userdoc": {
    "methods": {}
  }
}