{
  "contractName": "ExchangeStateV1",
  "abi": [
    {
      "anonymous": false,
      "inputs": [
        {
          "indexed": true,
          "internalType": "address",
          "name": "account",
          "type": "address"
        }
      ],
      "name": "OperatorAdded",
      "type": "event"
    },
    {
      "anonymous": false,
      "inputs": [
        {
          "indexed": true,
          "internalType": "address",
          "name": "account",
          "type": "address"
        }
      ],
      "name": "OperatorRemoved",
      "type": "event"
    },
    {
      "anonymous": false,
      "inputs": [
        {
          "indexed": true,
          "internalType": "address",
          "name": "previousOwner",
          "type": "address"
        },
        {
          "indexed": true,
          "internalType": "address",
          "name": "newOwner",
          "type": "address"
        }
      ],
      "name": "OwnershipTransferred",
      "type": "event"
    },
    {
      "constant": false,
      "inputs": [
        {
          "internalType": "address",
          "name": "account",
          "type": "address"
        }
      ],
      "name": "addOperator",
      "outputs": [],
      "payable": false,
      "stateMutability": "nonpayable",
      "type": "function"
    },
    {
      "constant": true,
      "inputs": [
        {
          "internalType": "bytes32",
          "name": "",
          "type": "bytes32"
        }
      ],
      "name": "completed",
      "outputs": [
        {
          "internalType": "uint256",
          "name": "",
          "type": "uint256"
        }
      ],
      "payable": false,
      "stateMutability": "view",
      "type": "function"
    },
    {
      "constant": true,
      "inputs": [
        {
          "internalType": "address",
          "name": "account",
          "type": "address"
        }
      ],
      "name": "isOperator",
      "outputs": [
        {
          "internalType": "bool",
          "name": "",
          "type": "bool"
        }
      ],
      "payable": false,
      "stateMutability": "view",
      "type": "function"
    },
    {
      "constant": true,
      "inputs": [],
      "name": "isOwner",
      "outputs": [
        {
          "internalType": "bool",
          "name": "",
          "type": "bool"
        }
      ],
      "payable": false,
      "stateMutability": "view",
      "type": "function"
    },
    {
      "constant": true,
      "inputs": [],
      "name": "owner",
      "outputs": [
        {
          "internalType": "address",
          "name": "",
          "type": "address"
        }
      ],
      "payable": false,
      "stateMutability": "view",
      "type": "function"
    },
    {
      "constant": false,
      "inputs": [
        {
          "internalType": "address",
          "name": "account",
          "type": "address"
        }
      ],
      "name": "removeOperator",
      "outputs": [],
      "payable": false,
      "stateMutability": "nonpayable",
      "type": "function"
    },
    {
      "constant": false,
      "inputs": [],
      "name": "renounceOwnership",
      "outputs": [],
      "payable": false,
      "stateMutability": "nonpayable",
      "type": "function"
    },
    {
      "constant": false,
      "inputs": [
        {
          "internalType": "address",
          "name": "newOwner",
          "type": "address"
        }
      ],
      "name": "transferOwnership",
      "outputs": [],
      "payable": false,
      "stateMutability": "nonpayable",
      "type": "function"
    },
    {
      "constant": true,
      "inputs": [
        {
          "components": [
            {
              "internalType": "address",
              "name": "owner",
              "type": "address"
            },
            {
              "internalType": "uint256",
              "name": "salt",
              "type": "uint256"
            },
            {
              "components": [
                {
                  "internalType": "address",
                  "name": "token",
                  "type": "address"
                },
                {
                  "internalType": "uint256",
                  "name": "tokenId",
                  "type": "uint256"
                },
                {
                  "internalType": "enum ExchangeDomainV1.AssetType",
                  "name": "assetType",
                  "type": "uint8"
                }
              ],
              "internalType": "struct ExchangeDomainV1.Asset",
              "name": "sellAsset",
              "type": "tuple"
            },
            {
              "components": [
                {
                  "internalType": "address",
                  "name": "token",
                  "type": "address"
                },
                {
                  "internalType": "uint256",
                  "name": "tokenId",
                  "type": "uint256"
                },
                {
                  "internalType": "enum ExchangeDomainV1.AssetType",
                  "name": "assetType",
                  "type": "uint8"
                }
              ],
              "internalType": "struct ExchangeDomainV1.Asset",
              "name": "buyAsset",
              "type": "tuple"
            }
          ],
          "internalType": "struct ExchangeDomainV1.OrderKey",
          "name": "key",
          "type": "tuple"
        }
      ],
      "name": "getCompleted",
      "outputs": [
        {
          "internalType": "uint256",
          "name": "",
          "type": "uint256"
        }
      ],
      "payable": false,
      "stateMutability": "view",
      "type": "function"
    },
    {
      "constant": false,
      "inputs": [
        {
          "components": [
            {
              "internalType": "address",
              "name": "owner",
              "type": "address"
            },
            {
              "internalType": "uint256",
              "name": "salt",
              "type": "uint256"
            },
            {
              "components": [
                {
                  "internalType": "address",
                  "name": "token",
                  "type": "address"
                },
                {
                  "internalType": "uint256",
                  "name": "tokenId",
                  "type": "uint256"
                },
                {
                  "internalType": "enum ExchangeDomainV1.AssetType",
                  "name": "assetType",
                  "type": "uint8"
                }
              ],
              "internalType": "struct ExchangeDomainV1.Asset",
              "name": "sellAsset",
              "type": "tuple"
            },
            {
              "components": [
                {
                  "internalType": "address",
                  "name": "token",
                  "type": "address"
                },
                {
                  "internalType": "uint256",
                  "name": "tokenId",
                  "type": "uint256"
                },
                {
                  "internalType": "enum ExchangeDomainV1.AssetType",
                  "name": "assetType",
                  "type": "uint8"
                }
              ],
              "internalType": "struct ExchangeDomainV1.Asset",
              "name": "buyAsset",
              "type": "tuple"
            }
          ],
          "internalType": "struct ExchangeDomainV1.OrderKey",
          "name": "key",
          "type": "tuple"
        },
        {
          "internalType": "uint256",
          "name": "newCompleted",
          "type": "uint256"
        }
      ],
      "name": "setCompleted",
      "outputs": [],
      "payable": false,
      "stateMutability": "nonpayable",
      "type": "function"
    },
    {
      "constant": true,
      "inputs": [
        {
          "components": [
            {
              "internalType": "address",
              "name": "owner",
              "type": "address"
            },
            {
              "internalType": "uint256",
              "name": "salt",
              "type": "uint256"
            },
            {
              "components": [
                {
                  "internalType": "address",
                  "name": "token",
                  "type": "address"
                },
                {
                  "internalType": "uint256",
                  "name": "tokenId",
                  "type": "uint256"
                },
                {
                  "internalType": "enum ExchangeDomainV1.AssetType",
                  "name": "assetType",
                  "type": "uint8"
                }
              ],
              "internalType": "struct ExchangeDomainV1.Asset",
              "name": "sellAsset",
              "type": "tuple"
            },
            {
              "components": [
                {
                  "internalType": "address",
                  "name": "token",
                  "type": "address"
                },
                {
                  "internalType": "uint256",
                  "name": "tokenId",
                  "type": "uint256"
                },
                {
                  "internalType": "enum ExchangeDomainV1.AssetType",
                  "name": "assetType",
                  "type": "uint8"
                }
              ],
              "internalType": "struct ExchangeDomainV1.Asset",
              "name": "buyAsset",
              "type": "tuple"
            }
          ],
          "internalType": "struct ExchangeDomainV1.OrderKey",
          "name": "key",
          "type": "tuple"
        }
      ],
      "name": "getCompletedKey",
      "outputs": [
        {
          "internalType": "bytes32",
          "name": "",
          "type": "bytes32"
        }
      ],
      "payable": false,
      "stateMutability": "pure",
      "type": "function"
    }
  ],
  "bytecode": "0x608060405260006100146100b760201b60201c565b9050806000806101000a81548173ffffffffffffffffffffffffffffffffffffffff021916908373ffffffffffffffffffffffffffffffffffffffff1602179055508073ffffffffffffffffffffffffffffffffffffffff16600073ffffffffffffffffffffffffffffffffffffffff167f8be0079c531659141344cd1fd0a4f28419497f9722a3daafe3b4186f6b6457e060405160405180910390a3506100bf565b600033905090565b6111a4806100ce6000396000f3fe608060405234801561001057600080fd5b50600436106100a95760003560e01c80639870d7fe116100715780639870d7fe14610140578063ac8a584a1461015c578063dc10fb0a14610178578063f2fde38b146101a8578063f6419d96146101c4578063fb0000c0146101f4576100a9565b80633a076e9a146100ae5780636d70f7ae146100ca578063715018a6146100fa5780638da5cb5b146101045780638f32d59b14610122575b600080fd5b6100c860048036036100c39190810190610bbb565b610224565b005b6100e460048036036100df9190810190610b3f565b6102a7565b6040516100f19190610f30565b60405180910390f35b6101026102c4565b005b61010c6103ca565b6040516101199190610f15565b60405180910390f35b61012a6103f3565b6040516101379190610f30565b60405180910390f35b61015a60048036036101559190810190610b3f565b610451565b005b61017660048036036101719190810190610b3f565b6104a4565b005b610192600480360361018d9190810190610bf9565b6104f7565b60405161019f9190610f4b565b60405180910390f35b6101c260048036036101bd9190810190610b3f565b610559565b005b6101de60048036036101d99190810190610b68565b6105ac565b6040516101eb9190611026565b60405180910390f35b61020e60048036036102099190810190610b91565b6105c4565b60405161021b9190611026565b60405180910390f35b61023461022f6105f9565b6102a7565b610273576040517f08c379a000000000000000000000000000000000000000000000000000000000815260040161026a90610fa6565b60405180910390fd5b80600260006102918580360361028c9190810190610bf9565b6104f7565b8152602001908152602001600020819055505050565b60006102bd82600161060190919063ffffffff16565b9050919050565b6102cc6103f3565b61030b576040517f08c379a000000000000000000000000000000000000000000000000000000000815260040161030290610fe6565b60405180910390fd5b600073ffffffffffffffffffffffffffffffffffffffff166000809054906101000a900473ffffffffffffffffffffffffffffffffffffffff1673ffffffffffffffffffffffffffffffffffffffff167f8be0079c531659141344cd1fd0a4f28419497f9722a3daafe3b4186f6b6457e060405160405180910390a360008060006101000a81548173ffffffffffffffffffffffffffffffffffffffff021916908373ffffffffffffffffffffffffffffffffffffffff160217905550565b60008060009054906101000a900473ffffffffffffffffffffffffffffffffffffffff16905090565b60008060009054906101000a900473ffffffffffffffffffffffffffffffffffffffff1673ffffffffffffffffffffffffffffffffffffffff166104356105f9565b73ffffffffffffffffffffffffffffffffffffffff1614905090565b6104596103f3565b610498576040517f08c379a000000000000000000000000000000000000000000000000000000000815260040161048f90610fe6565b60405180910390fd5b6104a1816106c9565b50565b6104ac6103f3565b6104eb576040517f08c379a00000000000000000000000000000000000000000000000000000000081526004016104e290610fe6565b60405180910390fd5b6104f481610723565b50565b60008160000151826040015160000151836040015160200151846060015160000151856060015160200151866020015160405160200161053c96959493929190610ea5565b604051602081830303815290604052805190602001209050919050565b6105616103f3565b6105a0576040517f08c379a000000000000000000000000000000000000000000000000000000000815260040161059790610fe6565b60405180910390fd5b6105a98161077d565b50565b60026020528060005260406000206000915090505481565b6000600260006105e3848036036105de9190810190610bf9565b6104f7565b8152602001908152602001600020549050919050565b600033905090565b60008073ffffffffffffffffffffffffffffffffffffffff168273ffffffffffffffffffffffffffffffffffffffff161415610672576040517f08c379a000000000000000000000000000000000000000000000000000000000815260040161066990611006565b60405180910390fd5b8260000160008373ffffffffffffffffffffffffffffffffffffffff1673ffffffffffffffffffffffffffffffffffffffff16815260200190815260200160002060009054906101000a900460ff16905092915050565b6106dd8160016108ab90919063ffffffff16565b8073ffffffffffffffffffffffffffffffffffffffff167fac6fa858e9350a46cec16539926e0fde25b7629f84b5a72bffaae4df888ae86d60405160405180910390a250565b61073781600161095390919063ffffffff16565b8073ffffffffffffffffffffffffffffffffffffffff167f80c0b871b97b595b16a7741c1b06fed0c6f6f558639f18ccbce50724325dc40d60405160405180910390a250565b600073ffffffffffffffffffffffffffffffffffffffff168173ffffffffffffffffffffffffffffffffffffffff1614156107ed576040517f08c379a00000000000000000000000000000000000000000000000000000000081526004016107e490610f86565b60405180910390fd5b8073ffffffffffffffffffffffffffffffffffffffff166000809054906101000a900473ffffffffffffffffffffffffffffffffffffffff1673ffffffffffffffffffffffffffffffffffffffff167f8be0079c531659141344cd1fd0a4f28419497f9722a3daafe3b4186f6b6457e060405160405180910390a3806000806101000a81548173ffffffffffffffffffffffffffffffffffffffff021916908373ffffffffffffffffffffffffffffffffffffffff16021790555050565b6108b58282610601565b156108f5576040517f08c379a00000000000000000000000000000000000000000000000000000000081526004016108ec90610f66565b60405180910390fd5b60018260000160008373ffffffffffffffffffffffffffffffffffffffff1673ffffffffffffffffffffffffffffffffffffffff16815260200190815260200160002060006101000a81548160ff0219169083151502179055505050565b61095d8282610601565b61099c576040517f08c379a000000000000000000000000000000000000000000000000000000000815260040161099390610fc6565b60405180910390fd5b60008260000160008373ffffffffffffffffffffffffffffffffffffffff1673ffffffffffffffffffffffffffffffffffffffff16815260200190815260200160002060006101000a81548160ff0219169083151502179055505050565b600081359050610a098161110c565b92915050565b600081359050610a1e81611123565b92915050565b600081359050610a338161113a565b92915050565b600060608284031215610a4b57600080fd5b610a556060611041565b90506000610a65848285016109fa565b6000830152506020610a7984828501610b2a565b6020830152506040610a8d84828501610a24565b60408301525092915050565b60006101008284031215610aac57600080fd5b81905092915050565b60006101008284031215610ac857600080fd5b610ad26080611041565b90506000610ae2848285016109fa565b6000830152506020610af684828501610b2a565b6020830152506040610b0a84828501610a39565b60408301525060a0610b1e84828501610a39565b60608301525092915050565b600081359050610b398161114a565b92915050565b600060208284031215610b5157600080fd5b6000610b5f848285016109fa565b91505092915050565b600060208284031215610b7a57600080fd5b6000610b8884828501610a0f565b91505092915050565b60006101008284031215610ba457600080fd5b6000610bb284828501610a99565b91505092915050565b6000806101208385031215610bcf57600080fd5b6000610bdd85828601610a99565b925050610100610bef85828601610b2a565b9150509250929050565b60006101008284031215610c0c57600080fd5b6000610c1a84828501610ab5565b91505092915050565b610c2c8161107f565b82525050565b610c43610c3e8261107f565b6110d1565b82525050565b610c5281611091565b82525050565b610c618161109d565b82525050565b6000610c74601f8361106e565b91507f526f6c65733a206163636f756e7420616c72656164792068617320726f6c65006000830152602082019050919050565b6000610cb460268361106e565b91507f4f776e61626c653a206e6577206f776e657220697320746865207a65726f206160008301527f64647265737300000000000000000000000000000000000000000000000000006020830152604082019050919050565b6000610d1a60348361106e565b91507f4f70657261746f72526f6c653a2063616c6c657220646f6573206e6f7420686160008301527f766520746865204f70657261746f7220726f6c650000000000000000000000006020830152604082019050919050565b6000610d8060218361106e565b91507f526f6c65733a206163636f756e7420646f6573206e6f74206861766520726f6c60008301527f65000000000000000000000000000000000000000000000000000000000000006020830152604082019050919050565b6000610de660208361106e565b91507f4f776e61626c653a2063616c6c6572206973206e6f7420746865206f776e65726000830152602082019050919050565b6000610e2660228361106e565b91507f526f6c65733a206163636f756e7420697320746865207a65726f20616464726560008301527f73730000000000000000000000000000000000000000000000000000000000006020830152604082019050919050565b610e88816110c7565b82525050565b610e9f610e9a826110c7565b6110f5565b82525050565b6000610eb18289610c32565b601482019150610ec18288610c32565b601482019150610ed18287610e8e565b602082019150610ee18286610c32565b601482019150610ef18285610e8e565b602082019150610f018284610e8e565b602082019150819050979650505050505050565b6000602082019050610f2a6000830184610c23565b92915050565b6000602082019050610f456000830184610c49565b92915050565b6000602082019050610f606000830184610c58565b92915050565b60006020820190508181036000830152610f7f81610c67565b9050919050565b60006020820190508181036000830152610f9f81610ca7565b9050919050565b60006020820190508181036000830152610fbf81610d0d565b9050919050565b60006020820190508181036000830152610fdf81610d73565b9050919050565b60006020820190508181036000830152610fff81610dd9565b9050919050565b6000602082019050818103600083015261101f81610e19565b9050919050565b600060208201905061103b6000830184610e7f565b92915050565b6000604051905081810181811067ffffffffffffffff8211171561106457600080fd5b8060405250919050565b600082825260208201905092915050565b600061108a826110a7565b9050919050565b60008115159050919050565b6000819050919050565b600073ffffffffffffffffffffffffffffffffffffffff82169050919050565b6000819050919050565b60006110dc826110e3565b9050919050565b60006110ee826110ff565b9050919050565b6000819050919050565b60008160601b9050919050565b6111158161107f565b811461112057600080fd5b50565b61112c8161109d565b811461113757600080fd5b50565b6005811061114757600080fd5b50565b611153816110c7565b811461115e57600080fd5b5056fea365627a7a723158201f6ec0ca42e5244834d8a2b4c0f8e5dc69dffbc1b5dd903b43f53479fdfc36d06c6578706572696d656e74616cf564736f6c63430005110040",
  "source": "pragma solidity ^0.5.0;\r\npragma experimental ABIEncoderV2;\r\n\r\nimport './OwnableOperatorRole.sol';\r\nimport './ExchangeDomainV1.sol';\r\n\r\ncontract ExchangeStateV1 is OwnableOperatorRole {\r\n\r\n    // keccak256(OrderKey) => completed\r\n    mapping(bytes32 => uint256) public completed;\r\n\r\n    function getCompleted(ExchangeDomainV1.OrderKey calldata key) view external returns (uint256) {\r\n        return completed[getCompletedKey(key)];\r\n    }\r\n\r\n    function setCompleted(ExchangeDomainV1.OrderKey calldata key, uint256 newCompleted) external onlyOperator {\r\n        completed[getCompletedKey(key)] = newCompleted;\r\n    }\r\n\r\n    function getCompletedKey(ExchangeDomainV1.OrderKey memory key) pure public returns (bytes32) {\r\n        return keccak256(abi.encodePacked(key.owner, key.sellAsset.token, key.sellAsset.tokenId, key.buyAsset.token, key.buyAsset.tokenId, key.salt));\r\n    }\r\n}",
  "sourcePath": "A:/project_2021/0422-NFT-Marketplace/work/BrandonMarketing-Contract/contracts/ExchangeStateV1.sol",
  "compiler": {
    "name": "solc",
    "version": "0.5.17+commit.d19bba13.Emscripten.clang"
  },
  "schemaVersion": "3.3.4",
  "updatedAt": "2021-05-11T15:01:36.155Z",
  "networkType": "ethereum",
  "devdoc": {
    "methods": {
      "isOwner()": {
        "details": "Returns true if the caller is the current owner."
      },
      "owner()": {
        "details": "Returns the address of the current owner."
      },
      "renounceOwnership()": {
        "details": "Leaves the contract without owner. It will not be possible to call `onlyOwner` functions anymore. Can only be called by the current owner.      * NOTE: Renouncing ownership will leave the contract without an owner, thereby removing any functionality that is only available to the owner."
      },
      "transferOwnership(address)": {
        "details": "Transfers ownership of the contract to a new account (`newOwner`). Can only be called by the current owner."
      }
    }
  },
  "userdoc": {
    "methods": {}
  }
}